:020000040000FA
:060000000A128A11122809
:10000800FE00030E83120313B2000408B3000A08AB
:10001800B4007F08B5000A128A11FE2B0A128A1151
:10002800152883120313CC01CD01CE01CF01D001D5
:10003800D101D201D301D401D501D601D701D8010C
:10004800D90183010A128A11502A83160313A500C5
:10005800453083120313C900490883160313A0000F
:100068004C292530260603193A283B284F2826080C
:1000780083120313C900831603132508840083120F
:1000880003134908831380000130C9004908831607
:100098000313A5074C29A101013083120313C407D8
:1000A800FF30440784000A128A1164260A128A1152
:1000B80083160313A60083120313C900CA014A0852
:1000C800003A031968284C294908003A031961299C
:1000D800643A031973280D3A031973284C298316B7
:1000E80003132008840083130008A300840A00086F
:1000F800A400023083120313C900490883160313AE
:10010800A007A41F88288928962803308312031380
:10011800C900490883160313A104A309A409A30A63
:100128000319A40AA601A60A260883120313C90004
:100138004907013E84000A128A1164260A128A11AC
:10014800CA000A128A1164260A128A11CB004B08C7
:10015800831603132402031DB728831203134A08C6
:100168008316031323020318BA28BB28BC28CA28FD
:10017800013083120313C900490883160313A60725
:1001880005302606031DC928CA28982821080339DE
:100198000319CF28D028E3282D3083120313C90070
:1001A8008316031325088400831203134908831355
:1001B80080000130C900490883160313A5072608E3
:1001C80083120313C900490883160313A2003F29A9
:1001D8000A3083120313BE000030BF0083160313D6
:1001E800220883120313C9004907013E84000A123A
:1001F8008A1164260A128A11B6000A128A11642624
:100208000A128A11B70083160313240883120313F2
:10021800B90083160313230883120313B8000A12C4
:100228008A11CE250A128A11831203133708C100D6
:100238003608C0000A128A1162270A128A1183122C
:1002480003133E08303ECA004A0883160313A6006B
:10025800260883120313C900831603132508840094
:10026800831203134908831380000130C900490829
:1002780083160313A507FF3083120313C900490827
:1002880083160313A207220A031D4B294C29EC28C5
:1002980001308312C407FF30440784000A128A1110
:1002A80064260A128A11C900490883160313A60096
:1002B8002608031D6029612935288316031325089C
:1002C800840083138001080083120313AD002130DA
:1002D800A5002508A800392A25302E0603197529F6
:1002E800762982292E08A5002D0884002508831365
:1002F80080000130A5002508AD07392AA901013081
:10030800A007FF30200784000A128A1164260A1207
:100318008A11AE00A500A6012608003A03199529FE
:10032800392A2508003A03194B2A643A0319A029E7
:100338000D3A0319A029392A2808840083130008D4
:10034800AB00840A0008AC000230A5002508A80705
:10035800AC1FAF29B029B9290330A5002508A90485
:10036800AB09AC09AB0A0319AC0AAE01AE0A2E08F8
:10037800A5002507013E84000A128A1164260A1284
:100388008A11A6000A128A1164260A128A11A70085
:1003980027082C02031DD22926082B020318D52969
:1003A800D629D729E1290130A5002508AE0705304F
:1003B8002E06031DE029E129BB2929080339031961
:1003C800E629E729F2292D30A5002D088400250803
:1003D800831380000130A5002508AD072E08A5006D
:1003E8002508AA00302A0A30F8000030F9002A0847
:1003F800A5002507013E84000A128A1164260A1204
:100408008A11F0000A128A1164260A128A11F10070
:100418002C08F3002B08F2000A128A119F260A12F0
:100428008A117108FB007008FA000A128A119E27C7
:100438000A128A117808303E83120313A600260890
:10044800AE002E08A5002D0884002508831380001F
:100458000130A5002508AD07FF30A5002508AA072B
:100468002A0A031D382A392AF7290130A007FF3044
:10047800200784000A128A1164260A128A11A5002C
:100488002508AE002E08031D4A2A4B2A70292D087C
:100498008400831380010800FF308316031385004E
:1004A8003F308600870188018312031306138613E1
:1004B800871283160313811301170B168B170B175B
:1004C8000C1483120313901010169016DC308E0053
:1004D8000B308F00831603131F109F141F159F15D1
:1004E800831203131F139F13831603139F139E0175
:1004F800831203139E011F141A3083160313AB00D3
:10050800F730AA00AA0B862AAB0B862A8B2A0A1276
:100518008A1176240A128A110A128A1566270A1283
:100528008A1183120313BA01BA0A01300A128A1116
:10053800D9240A128A112A3083120313BB0080308F
:10054800BC000A128A1114260A128A110A128A1188
:1005580083250A128A11831203139F111F129F12F7
:100568001F15023083160313AA00AA0BB92A00002C
:10057800831203131E0883160313AA00AB0103108A
:10058800AA0DAB0D2A0883120313D2008316031396
:100598002B0883120313D3008618D32AD42AAF2A30
:1005A800061710148714071587115308803AFF009F
:1005B80080307F02031DE22A62305202031CE52AC2
:1005C800E62AF92A831203138716023083160313C7
:1005D800AC008630AB009830AA00AA0BF12AAB0B0E
:1005E800F12AAC0BF12A0000AF2A831203138712F9
:1005F800AF2A0A128A111228831203135108803A6B
:10060800FF0080307F02031D0B2B3C305002031C7F
:100618000E2B0F2B202B831203135008C43ED0003F
:1006280051080318013EFF3ED1000130CE070318E0
:10063800CF0A0030CF07512B831203135108803A99
:10064800FF0080307F02031D2B2B0130500203185E
:100658002E2B2F2B512B831203134F08803AFF00A8
:1006680080307F02031D3A2B01304E0203183D2BC8
:100678003E2B452B83120313D001D101CE01CF01AC
:10068800512BFF3083120313CE070318CF0AFF3014
:10069800CF073B30D0000030D1000A128A156627F8
:1006A8000A128A1183120313BA01BA0A01300A1214
:1006B8008A11D9240A128A11303083160313A7002D
:1006C800270883120313C4004F08C6004E08C5004C
:1006D8005108C8005008C70054300A128A1129204E
:1006E8000A128A11543083120313BB000030BC0075
:1006F8000A128A1114260A128A1108008312031397
:100708005108803AFF0080307F02031D8D2B3C305A
:100718005002031C902B912BA22B83120313500819
:10072800C43ED00051080318013EFF3ED1000130FD
:10073800CE070318CF0A0030CF07D32B8312031339
:100748005108803AFF0080307F02031DAD2B013035
:1007580050020318B02BB12BD32B831203134F086D
:10076800803AFF0080307F02031DBC2B01304E020F
:100778000318BF2BC02BC72B83120313D001D10141
:10078800CE01CF01D32BFF3083120313CE070318FA
:10079800CF0AFF30CF073B30D0000030D1000A121B
:1007A8008A1559270A128A11F401F40A01300A122B
:1007B8008A1131250A128A11303083120313AF00CF
:1007C8002F08A0004F08A2004E08A1005108A4005D
:1007D8005008A30054300A128A1168210A128A119B
:1007E8005430F5000030F6000A128A11E3260A1286
:1007F8008A1108008B1C012C022C172C8B108617D1
:1008080006138710F401F40A01300A128A113125FF
:100818000A128A111E30F5008030F6000A128A1179
:10082800E3260A128A11831203130C1C1C2C1D2C9C
:10083800692C0C10DC308E000B308F000130CC0797
:100848000318CD0A0030CD074C034D04031D2D2C91
:100858002E2C3B2CFF30D0070318D10AFF30D107CC
:10086800CC01CD010A128A1182230A128A1183123D
:10087800031350085104031D422C432C692C4E08C5
:100888004F04031D482C492C692C871041308312D2
:100898000313B100ED30B000B00B502CB10B502C4D
:1008A800552C831203130613F401F40A01300A12BB
:1008B8008A1131250A128A110B30F5008030F600B2
:1008C8000A128A11E3260A128A11831203133508C1
:1008D800FF0034088A0033088400320E8300FE0EBD
:1008E8007E0E090000300A128A15A9270A128A11F9
:1008F8001A3083120313BB00F730BA00BA0B822CEC
:10090800BB0B822C872C03300A128A158D270A12FA
:100918008A11073083120313BB007C30BA00BA0B6C
:10092800932CBB0B932C000003300A128A158D27D9
:100938000A128A110F3083120313BB004730BA0022
:10094800BA0BA42CBB0BA42C03300A128A158D27D2
:100958000A128A1102300A128A158D270A128A1180
:1009680002300A128A158D270A128A1108300A12D3
:100978008A158D270A128A1100300A128A158D27C6
:100988000A128A110C300A128A158D270A128A1146
:1009980000300A128A158D270A128A1106300A12A7
:1009A8008A158D270A128A11080083120313BD00C5
:1009B8003D03031DE02CE12C062D3A087F3EBB00C9
:1009C8003B08C0004008BB0004300310BB0CFF3ECE
:1009D800031DE92C3B08BC003C08BE0040080F3949
:1009E800BB003B08BF003E080A128A158D270A1271
:1009F8008A11831203133F080A128A158D270A12D7
:100A08008A11302D02303D06031D0B2D0C2D302D83
:100A18003A08BF3EBB003B08C0004008BB0004309A
:100A28000310BB0CFF3E031D142D3B08BC003C0803
:100A3800BE0040080F39BB003B08BF003E080A1241
:100A48008A158D270A128A11831203133F080A1286
:100A58008A158D270A128A110800F7007703031DEB
:100A6800362D372D5A2D74087F3EF5007508FA008B
:100A78007A08F50004300310F50CFF3E031D3F2DE6
:100A88007508F6007608F8007A080F39F500750839
:100A9800F90078080A128A1573270A128A11790848
:100AA8000A128A1573270A128A11822D02307706D4
:100AB800031D5F2D602D822D7408BF3EF50075085B
:100AC800FA007A08F50004300310F50CFF3E031D08
:100AD800682D7508F6007608F8007A080F39F500D1
:100AE8007508F90078080A128A1573270A128A11FC
:100AF80079080A128A1573270A128A1108008312C4
:100B08000313861A882D892D962D50085104031D2C
:100B18008E2D8F2DCD2D4E084F040319942D952D14
:100B2800962DCD2D8619992D9A2DB02D0130D007EF
:100B38000318D10A0030D1070A128A1100230A12B9
:100B48008A11413083160313A900ED30A800A80BC1
:100B5800AB2DA90BAB2DB02D83120313061AB52D9F
:100B6800B62D832DFF30D0070318D10AFF30D107E7
:100B78000A128A1100230A128A11413083160313BC
:100B8800A900ED30A800A80BC72DA90BC72DCC2DA7
:100B9800832D080083120313BC01BD0136083704F6
:100BA8000319D72DD82D0F2EBB01BB0AE62D013016
:100BB8000310B60DB70DFF3E031DDC2D0130BA0042
:100BC8003A08BB07B71FE92DEA2DDB2D01300310CA
:100BD800BC0DBD0DFF3E031DEB2D37083902031D6B
:100BE800F72D36083802031CFA2DFB2D022E360885
:100BF800B8023708031CB903B9023C1401300310CA
:100C0800B70CB60CFF3E031D032E0130BB02031DBB
:100C18000E2E0F2EEA2D3D08B7003C08B60008003E
:100C280083120313C001C1013D2E40083B07BE00DB
:100C38003C08BD000318BD0AC01F232EBD03831244
:100C480003133D08BF003F08FF003E0884000A1256
:100C58008A115A260A128A110A128A1125270A129B
:100C68008A11013083120313C0070318C10A003028
:100C7800C10740083B07BE003C08BD000318BD0A79
:100C8800C01F472EBD03831203133D08BF003F0852
:100C9800FF003E0884000A128A115A260A128A1195
:100CA800003A031D582E592E192E0800FF1B642EDA
:100CB80083137F1883170008840A0319FF0A0800A2
:100CC80006308A000408840A82070034013400349C
:100CD8000A34003464340034E834033410342734DC
:100CE800503452344F344E3454344F34203450340A
:100CF8002F34203452344534543449345234413436
:100D080052342134003445344D3445345234473458
:100D180045344E344334493441342134003430347A
:100D280030343A34303430340034253464343A348E
:100D3800253464340034F501F60170087104031990
:100D4800A62EA72EDE2EF701F70AB52E01300310C6
:100D5800F00DF10DFF3E031DAB2E0130F4007408B9
:100D6800F707F11FB82EB92EAA2E01300310F50D82
:100D7800F60DFF3E031DBA2E71087302031DC62E21
:100D880070087202031CC92ECA2ED12E7008F202F6
:100D98007108031CF303F302751401300310F10CFE
:100DA800F00CFF3E031DD22E0130F702031DDD2E8D
:100DB800DE2EB92E7608F1007508F0000800FA0159
:100DC800FB01082F7A087507F8007608F700031862
:100DD800F70AFA1FF02EF7037708F900790883124B
:100DE8000313FF00780884000A128A115A260A128F
:100DF8008A110A128A15C9270A128A110130FA07BC
:100E08000318FB0A0030FB077A087507F800760814
:100E1800F7000318F70AFA1F122FF7037708F900EB
:100E2800790883120313FF00780884000A128A11D4
:100E38005A260A128A11003A031D232F242FE62E60
:100E4800080083120313BA003A080F39B7003708AD
:100E5800B8003A08F039B7003708B900081539085A
:100E6800B70004300310B70CFF3E031D362F3708B8
:100E78000A128A15A9270A128A11831203138815E0
:100E88000C3083120313B700B70B482F00008312EE
:100E98000313881138080A128A15A9270A128A1119
:100EA8008312031388150C3083120313B700B70B92
:100EB8005B2F0000831203138811080083120313A9
:100EC8003E083F040319692F6A2F992FC301C30AEB
:100ED800782F01300310BE0DBF0DFF3E031D6E2F8E
:100EE8000130C2004208C307BF1F7B2F7C2F6D2F24
:100EF8003F084102031D822F3E084002031C852F34
:100F0800862F8C2F3E08C0023F08031CC103C10274
:100F180001300310BF0CBE0CFF3E031D8D2F0130A6
:100F2800C302031D982F992F7C2F4108BF0040084A
:100F3800BE000800780879040319A32FA42FD32F23
:100F4800FD01FD0AB22F01300310F80DF90DFF3E27
:100F5800031DA82F0130FC007C08FD07F91FB52FE1
:100F6800B62FA72F79087B02031DBC2F78087A02B9
:100F7800031CBF2FC02FC62F7808FA027908031C5C
:100F8800FB03FB0201300310F90CF80CFF3E031DB4
:100F9800C72F0130FD02031DD22FD32FB62F7B0898
:100FA800F9007A08F8000800F000701CDC2FDD2F2B
:100FB800E12F831203130816E42F83120313081278
:100FC800F01CE72FE82FEA2F8816EB2F8812701DE8
:100FD800EE2FEF2FF12F0817F22F0813F01DF52F22
:0C0FE800F62FF82F8817F92F8813080047
:101EB20000300A128A1573270A128A1501300A1293
:101EC2008A1573270A128A15080000300A128A1529
:101ED2008D270A128A1501300A128A158D270A12D5
:101EE2008A150800F30083120313081173080A12FB
:101EF2008A11D8270A128A1583120313881506300D
:101F0200F2003030F100F10B842FF20B842F00002D
:101F1200831203138811080083120313B9000811F6
:101F220039080A128A15A9270A128A15831203137D
:101F32008815063083120313B8002F30B700B70B91
:101F4200A02FB80BA02FA52F83120313881108000E
:101F520083120313B600361CAF2FB02FB22F081610
:101F6200B32F0812B61CB62FB72FB92F8816BA2F67
:101F72008812361DBD2FBE2FC02F0817C12F081380
:101F8200B61DC42FC52FC72F8817C82F8813080066
:101F9200F40074080F39F1007108F2007408F03986
:101FA200F1007108F3008312031308157308F1009E
:101FB20004300310F10CFF3E031DDA2F71080A12E0
:101FC2008A11D8270A128A158312031388150D3035
:101FD200F100F10BEA2F83120313881172080A121F
:101FE2008A11D8270A128A158312031388150D3015
:0E1FF200F100F10BFA2F83120313881108007F
:02400E00F23F7F
:00000001FF
